{
    "_format": "hh-sol-artifact-1",
    "contractName": "NftMarketplace",
    "sourceName": "contracts/NftMarketplace.sol",
    "abi": [
        {
            "anonymous": false,
            "inputs": [
                {
                    "indexed": false,
                    "internalType": "address",
                    "name": "operator",
                    "type": "address"
                },
                {
                    "indexed": false,
                    "internalType": "address",
                    "name": "from",
                    "type": "address"
                },
                {
                    "indexed": false,
                    "internalType": "uint256",
                    "name": "tokenId",
                    "type": "uint256"
                },
                {
                    "indexed": false,
                    "internalType": "bytes",
                    "name": "data",
                    "type": "bytes"
                }
            ],
            "name": "ERC721TokenReceived",
            "type": "event"
        },
        {
            "anonymous": false,
            "inputs": [
                {
                    "indexed": false,
                    "internalType": "address",
                    "name": "buyer",
                    "type": "address"
                },
                {
                    "indexed": false,
                    "internalType": "address",
                    "name": "nftAddress",
                    "type": "address"
                },
                {
                    "indexed": false,
                    "internalType": "uint256",
                    "name": "tokenId",
                    "type": "uint256"
                },
                {
                    "indexed": false,
                    "internalType": "uint256",
                    "name": "price",
                    "type": "uint256"
                }
            ],
            "name": "ItemBought",
            "type": "event"
        },
        {
            "anonymous": false,
            "inputs": [
                {
                    "indexed": false,
                    "internalType": "address",
                    "name": "seller",
                    "type": "address"
                },
                {
                    "indexed": false,
                    "internalType": "address",
                    "name": "nftAddress",
                    "type": "address"
                },
                {
                    "indexed": false,
                    "internalType": "uint256",
                    "name": "tokenId",
                    "type": "uint256"
                }
            ],
            "name": "ItemCancelled",
            "type": "event"
        },
        {
            "anonymous": false,
            "inputs": [
                {
                    "indexed": true,
                    "internalType": "address",
                    "name": "nftAddress",
                    "type": "address"
                },
                {
                    "indexed": false,
                    "internalType": "uint256",
                    "name": "price",
                    "type": "uint256"
                },
                {
                    "indexed": true,
                    "internalType": "uint256",
                    "name": "tokenId",
                    "type": "uint256"
                },
                {
                    "indexed": true,
                    "internalType": "address",
                    "name": "seller",
                    "type": "address"
                },
                {
                    "indexed": false,
                    "internalType": "address",
                    "name": "buyer",
                    "type": "address"
                },
                {
                    "indexed": false,
                    "internalType": "uint256",
                    "name": "depositAmount",
                    "type": "uint256"
                },
                {
                    "indexed": false,
                    "internalType": "uint256",
                    "name": "loanDurationInWeeks",
                    "type": "uint256"
                },
                {
                    "indexed": false,
                    "internalType": "uint256",
                    "name": "interestPercentage",
                    "type": "uint256"
                }
            ],
            "name": "ItemListed",
            "type": "event"
        },
        {
            "anonymous": false,
            "inputs": [
                {
                    "indexed": false,
                    "internalType": "address",
                    "name": "buyer",
                    "type": "address"
                },
                {
                    "indexed": false,
                    "internalType": "address",
                    "name": "nftAddress",
                    "type": "address"
                },
                {
                    "indexed": false,
                    "internalType": "uint256",
                    "name": "tokenId",
                    "type": "uint256"
                }
            ],
            "name": "PaidDeposit",
            "type": "event"
        },
        {
            "anonymous": false,
            "inputs": [
                {
                    "indexed": false,
                    "internalType": "address",
                    "name": "buyer",
                    "type": "address"
                },
                {
                    "indexed": false,
                    "internalType": "address",
                    "name": "nftAddress",
                    "type": "address"
                },
                {
                    "indexed": false,
                    "internalType": "uint256",
                    "name": "tokenId",
                    "type": "uint256"
                }
            ],
            "name": "PaidInstalment",
            "type": "event"
        },
        {
            "inputs": [
                {
                    "internalType": "address",
                    "name": "nftAddress",
                    "type": "address"
                },
                {
                    "internalType": "uint256",
                    "name": "tokenId",
                    "type": "uint256"
                }
            ],
            "name": "buyNft",
            "outputs": [],
            "stateMutability": "payable",
            "type": "function"
        },
        {
            "inputs": [
                {
                    "internalType": "address",
                    "name": "nftAddress",
                    "type": "address"
                },
                {
                    "internalType": "uint256",
                    "name": "tokenId",
                    "type": "uint256"
                }
            ],
            "name": "cancelListing",
            "outputs": [],
            "stateMutability": "nonpayable",
            "type": "function"
        },
        {
            "inputs": [
                {
                    "internalType": "address",
                    "name": "nftAddress",
                    "type": "address"
                },
                {
                    "internalType": "uint256",
                    "name": "tokenId",
                    "type": "uint256"
                }
            ],
            "name": "getListing",
            "outputs": [
                {
                    "components": [
                        {
                            "internalType": "uint256",
                            "name": "price",
                            "type": "uint256"
                        },
                        {
                            "internalType": "uint256",
                            "name": "tokenId",
                            "type": "uint256"
                        },
                        {
                            "internalType": "address",
                            "name": "seller",
                            "type": "address"
                        },
                        {
                            "internalType": "address",
                            "name": "buyer",
                            "type": "address"
                        },
                        {
                            "internalType": "uint256",
                            "name": "depositAmount",
                            "type": "uint256"
                        },
                        {
                            "internalType": "uint256",
                            "name": "loanDurationInWeeks",
                            "type": "uint256"
                        },
                        {
                            "internalType": "uint256",
                            "name": "interestPercentage",
                            "type": "uint256"
                        },
                        {
                            "internalType": "uint256",
                            "name": "remainingPayableAmount",
                            "type": "uint256"
                        },
                        {
                            "internalType": "bool",
                            "name": "hasPaidDeposit",
                            "type": "bool"
                        },
                        {
                            "internalType": "uint256",
                            "name": "depositPaidAt",
                            "type": "uint256"
                        },
                        {
                            "internalType": "uint256",
                            "name": "instalmentPaidAt",
                            "type": "uint256"
                        }
                    ],
                    "internalType": "struct NftMarketplace.ListItem",
                    "name": "",
                    "type": "tuple"
                }
            ],
            "stateMutability": "view",
            "type": "function"
        },
        {
            "inputs": [
                {
                    "internalType": "address",
                    "name": "seller",
                    "type": "address"
                }
            ],
            "name": "getProceeds",
            "outputs": [
                {
                    "internalType": "uint256",
                    "name": "",
                    "type": "uint256"
                }
            ],
            "stateMutability": "view",
            "type": "function"
        },
        {
            "inputs": [
                {
                    "internalType": "uint256",
                    "name": "tokenId",
                    "type": "uint256"
                },
                {
                    "internalType": "address",
                    "name": "nftAddress",
                    "type": "address"
                },
                {
                    "internalType": "uint256",
                    "name": "price",
                    "type": "uint256"
                },
                {
                    "internalType": "uint256",
                    "name": "loanDurationInWeeks",
                    "type": "uint256"
                },
                {
                    "internalType": "uint256",
                    "name": "interestPercentage",
                    "type": "uint256"
                }
            ],
            "name": "listNft",
            "outputs": [],
            "stateMutability": "nonpayable",
            "type": "function"
        },
        {
            "inputs": [
                {
                    "internalType": "address",
                    "name": "operator",
                    "type": "address"
                },
                {
                    "internalType": "address",
                    "name": "from",
                    "type": "address"
                },
                {
                    "internalType": "uint256",
                    "name": "tokenId",
                    "type": "uint256"
                },
                {
                    "internalType": "bytes",
                    "name": "data",
                    "type": "bytes"
                }
            ],
            "name": "onERC721Received",
            "outputs": [
                {
                    "internalType": "bytes4",
                    "name": "",
                    "type": "bytes4"
                }
            ],
            "stateMutability": "nonpayable",
            "type": "function"
        },
        {
            "inputs": [
                {
                    "internalType": "address",
                    "name": "nftAddress",
                    "type": "address"
                },
                {
                    "internalType": "uint256",
                    "name": "tokenId",
                    "type": "uint256"
                }
            ],
            "name": "payDeposit",
            "outputs": [
                {
                    "internalType": "bool",
                    "name": "",
                    "type": "bool"
                }
            ],
            "stateMutability": "payable",
            "type": "function"
        },
        {
            "inputs": [
                {
                    "internalType": "address",
                    "name": "nftAddress",
                    "type": "address"
                },
                {
                    "internalType": "uint256",
                    "name": "tokenId",
                    "type": "uint256"
                }
            ],
            "name": "payInstallment",
            "outputs": [],
            "stateMutability": "payable",
            "type": "function"
        },
        {
            "inputs": [
                {
                    "internalType": "address",
                    "name": "nftAddress",
                    "type": "address"
                },
                {
                    "internalType": "uint256",
                    "name": "tokenId",
                    "type": "uint256"
                },
                {
                    "internalType": "uint256",
                    "name": "newPrice",
                    "type": "uint256"
                },
                {
                    "internalType": "uint256",
                    "name": "loanDurationInWeeks",
                    "type": "uint256"
                },
                {
                    "internalType": "uint256",
                    "name": "interestPercentage",
                    "type": "uint256"
                }
            ],
            "name": "updateListing",
            "outputs": [],
            "stateMutability": "nonpayable",
            "type": "function"
        },
        {
            "inputs": [],
            "name": "withdrawProceeds",
            "outputs": [],
            "stateMutability": "nonpayable",
            "type": "function"
        },
        {
            "stateMutability": "payable",
            "type": "receive"
        }
    ],
    "bytecode": "0x608060405234801561001057600080fd5b5060016000819055506143b1806100286000396000f3fe6080604052600436106100955760003560e01c806388700d1c1161005957806388700d1c146101905780639038e693146101cd578063a86f678f146101e4578063b2ddee0614610200578063f15e54c9146102295761009c565b8063150b7a02146100a157806330cfeda9146100de5780634cc88ed11461011b5780634ddf4f8f1461014b5780636fad0409146101675761009c565b3661009c57005b600080fd5b3480156100ad57600080fd5b506100c860048036038101906100c3919061332e565b610252565b6040516100d591906133f1565b60405180910390f35b3480156100ea57600080fd5b506101056004803603810190610100919061340c565b6102a6565b6040516101129190613448565b60405180910390f35b61013560048036038101906101309190613463565b6102ef565b60405161014291906134be565b60405180910390f35b61016560048036038101906101609190613463565b6109bc565b005b34801561017357600080fd5b5061018e600480360381019061018991906134d9565b610fd8565b005b34801561019c57600080fd5b506101b760048036038101906101b29190613463565b6117e8565b6040516101c49190613662565b60405180910390f35b3480156101d957600080fd5b506101e261196b565b005b6101fe60048036038101906101f99190613463565b611ae7565b005b34801561020c57600080fd5b5061022760048036038101906102229190613463565b6126cb565b005b34801561023557600080fd5b50610250600480360381019061024b919061367e565b612aca565b005b60007fe141e60d56f3ecabf6d81b1945e30c35dd70d7d0ce0c756ef76c68673e6dd3f8868686868660405161028b959493929190613766565b60405180910390a163150b7a0260e01b905095945050505050565b6000600260008373ffffffffffffffffffffffffffffffffffffffff1673ffffffffffffffffffffffffffffffffffffffff168152602001908152602001600020549050919050565b600060026000541415610337576040517f08c379a000000000000000000000000000000000000000000000000000000000815260040161032e90613811565b60405180910390fd5b600260008190555082826000600160008473ffffffffffffffffffffffffffffffffffffffff1673ffffffffffffffffffffffffffffffffffffffff16815260200190815260200160002060008381526020019081526020016000206040518061016001604052908160008201548152602001600182015481526020016002820160009054906101000a900473ffffffffffffffffffffffffffffffffffffffff1673ffffffffffffffffffffffffffffffffffffffff1673ffffffffffffffffffffffffffffffffffffffff1681526020016003820160009054906101000a900473ffffffffffffffffffffffffffffffffffffffff1673ffffffffffffffffffffffffffffffffffffffff1673ffffffffffffffffffffffffffffffffffffffff168152602001600482015481526020016005820154815260200160068201548152602001600782015481526020016008820160009054906101000a900460ff1615151515815260200160098201548152602001600a82015481525050905060008160000151116104ff576040517f08c379a00000000000000000000000000000000000000000000000000000000081526004016104f69061387d565b60405180910390fd5b6000600160008873ffffffffffffffffffffffffffffffffffffffff1673ffffffffffffffffffffffffffffffffffffffff16815260200190815260200160002060008781526020019081526020016000206040518061016001604052908160008201548152602001600182015481526020016002820160009054906101000a900473ffffffffffffffffffffffffffffffffffffffff1673ffffffffffffffffffffffffffffffffffffffff1673ffffffffffffffffffffffffffffffffffffffff1681526020016003820160009054906101000a900473ffffffffffffffffffffffffffffffffffffffff1673ffffffffffffffffffffffffffffffffffffffff1673ffffffffffffffffffffffffffffffffffffffff168152602001600482015481526020016005820154815260200160068201548152602001600782015481526020016008820160009054906101000a900460ff1615151515815260200160098201548152602001600a8201548152505090506000600160008973ffffffffffffffffffffffffffffffffffffffff1673ffffffffffffffffffffffffffffffffffffffff1681526020019081526020016000206000888152602001908152602001600020905060001515826101000151151514610716576040517f08c379a000000000000000000000000000000000000000000000000000000000815260040161070d906138e9565b60405180910390fd5b6000339050826040015173ffffffffffffffffffffffffffffffffffffffff168173ffffffffffffffffffffffffffffffffffffffff16141561078e576040517f08c379a000000000000000000000000000000000000000000000000000000000815260040161078590613955565b60405180910390fd5b600060648460c0015160646107a391906139a4565b85600001516107b291906139fa565b6107bc9190613a83565b905060006064601e836107cf91906139fa565b6107d99190613a83565b905080341461081d576040517f08c379a000000000000000000000000000000000000000000000000000000000815260040161081490613b00565b60405180910390fd5b3460026000876040015173ffffffffffffffffffffffffffffffffffffffff1673ffffffffffffffffffffffffffffffffffffffff168152602001908152602001600020600082825461087091906139a4565b9250508190555034826108839190613b20565b846007018190555060018460080160006101000a81548160ff021916908315150217905550828460030160006101000a81548173ffffffffffffffffffffffffffffffffffffffff021916908373ffffffffffffffffffffffffffffffffffffffff1602179055508a73ffffffffffffffffffffffffffffffffffffffff166342842e0e8660400151308d6040518463ffffffff1660e01b815260040161092c93929190613b54565b600060405180830381600087803b15801561094657600080fd5b505af115801561095a573d6000803e3d6000fd5b505050504284600901819055507f9faec9fae4d3d373aacf667b8024822c546161df4587f6cdaac84dd1f422af07338c8c60405161099a93929190613b54565b60405180910390a1600198505050505050505050600160008190555092915050565b60026000541415610a02576040517f08c379a00000000000000000000000000000000000000000000000000000000081526004016109f990613811565b60405180910390fd5b600260008190555081816000600160008473ffffffffffffffffffffffffffffffffffffffff1673ffffffffffffffffffffffffffffffffffffffff16815260200190815260200160002060008381526020019081526020016000206040518061016001604052908160008201548152602001600182015481526020016002820160009054906101000a900473ffffffffffffffffffffffffffffffffffffffff1673ffffffffffffffffffffffffffffffffffffffff1673ffffffffffffffffffffffffffffffffffffffff1681526020016003820160009054906101000a900473ffffffffffffffffffffffffffffffffffffffff1673ffffffffffffffffffffffffffffffffffffffff1673ffffffffffffffffffffffffffffffffffffffff168152602001600482015481526020016005820154815260200160068201548152602001600782015481526020016008820160009054906101000a900460ff1615151515815260200160098201548152602001600a8201548152505090506000816000015111610bca576040517f08c379a0000000000000000000000000000000000000000000000000000000008152600401610bc19061387d565b60405180910390fd5b6000600160008773ffffffffffffffffffffffffffffffffffffffff1673ffffffffffffffffffffffffffffffffffffffff16815260200190815260200160002060008681526020019081526020016000206040518061016001604052908160008201548152602001600182015481526020016002820160009054906101000a900473ffffffffffffffffffffffffffffffffffffffff1673ffffffffffffffffffffffffffffffffffffffff1673ffffffffffffffffffffffffffffffffffffffff1681526020016003820160009054906101000a900473ffffffffffffffffffffffffffffffffffffffff1673ffffffffffffffffffffffffffffffffffffffff1673ffffffffffffffffffffffffffffffffffffffff168152602001600482015481526020016005820154815260200160068201548152602001600782015481526020016008820160009054906101000a900460ff1615151515815260200160098201548152602001600a820154815250509050600060648260c001516064610d5691906139a4565b8360000151610d6591906139fa565b610d6f9190613a83565b905060008261010001518015610d89575060008360e00151145b8015610dd757508160026000856040015173ffffffffffffffffffffffffffffffffffffffff1673ffffffffffffffffffffffffffffffffffffffff16815260200190815260200160002054145b9050600015158115151415610e21576040517f08c379a0000000000000000000000000000000000000000000000000000000008152600401610e1890613bd7565b60405180910390fd5b600160008973ffffffffffffffffffffffffffffffffffffffff1673ffffffffffffffffffffffffffffffffffffffff168152602001908152602001600020600088815260200190815260200160002060008082016000905560018201600090556002820160006101000a81549073ffffffffffffffffffffffffffffffffffffffff02191690556003820160006101000a81549073ffffffffffffffffffffffffffffffffffffffff021916905560048201600090556005820160009055600682016000905560078201600090556008820160006101000a81549060ff02191690556009820160009055600a82016000905550508773ffffffffffffffffffffffffffffffffffffffff166342842e0e30338a6040518463ffffffff1660e01b8152600401610f5393929190613b54565b600060405180830381600087803b158015610f6d57600080fd5b505af1158015610f81573d6000803e3d6000fd5b505050507f263223b1dd81e51054a4e6f791d45a4a1ddb4aadcd93a2dfd892615c3fdac1873389898660000151604051610fbe9493929190613bf7565b60405180910390a150505050505060016000819055505050565b84846000600160008473ffffffffffffffffffffffffffffffffffffffff1673ffffffffffffffffffffffffffffffffffffffff16815260200190815260200160002060008381526020019081526020016000206040518061016001604052908160008201548152602001600182015481526020016002820160009054906101000a900473ffffffffffffffffffffffffffffffffffffffff1673ffffffffffffffffffffffffffffffffffffffff1673ffffffffffffffffffffffffffffffffffffffff1681526020016003820160009054906101000a900473ffffffffffffffffffffffffffffffffffffffff1673ffffffffffffffffffffffffffffffffffffffff1673ffffffffffffffffffffffffffffffffffffffff168152602001600482015481526020016005820154815260200160068201548152602001600782015481526020016008820160009054906101000a900460ff1615151515815260200160098201548152602001600a8201548152505090506000816000015111611198576040517f08c379a000000000000000000000000000000000000000000000000000000000815260040161118f9061387d565b60405180910390fd5b600260005414156111de576040517f08c379a00000000000000000000000000000000000000000000000000000000081526004016111d590613811565b60405180910390fd5b6002600081905550878733600083905060008173ffffffffffffffffffffffffffffffffffffffff16636352211e856040518263ffffffff1660e01b81526004016112299190613448565b60206040518083038186803b15801561124157600080fd5b505afa158015611255573d6000803e3d6000fd5b505050506040513d601f19601f820116820180604052508101906112799190613c51565b90508273ffffffffffffffffffffffffffffffffffffffff168173ffffffffffffffffffffffffffffffffffffffff16146112e9576040517f08c379a00000000000000000000000000000000000000000000000000000000081526004016112e090613cca565b60405180910390fd5b60008d905060008d905060008d905060008d905060008d905060008311611345576040517f08c379a000000000000000000000000000000000000000000000000000000000815260040161133c90613d36565b60405180910390fd5b600060026000600160008973ffffffffffffffffffffffffffffffffffffffff1673ffffffffffffffffffffffffffffffffffffffff168152602001908152602001600020600088815260200190815260200160002060020160009054906101000a900473ffffffffffffffffffffffffffffffffffffffff1673ffffffffffffffffffffffffffffffffffffffff1673ffffffffffffffffffffffffffffffffffffffff16815260200190815260200160002054111561143b576040517f08c379a000000000000000000000000000000000000000000000000000000000815260040161143290613da2565b60405180910390fd5b6000606482606461144c91906139a4565b8561145791906139fa565b6114619190613a83565b905060006064601e8361147491906139fa565b61147e9190613a83565b905084600160008973ffffffffffffffffffffffffffffffffffffffff1673ffffffffffffffffffffffffffffffffffffffff16815260200190815260200160002060008881526020019081526020016000206000018190555083600160008973ffffffffffffffffffffffffffffffffffffffff1673ffffffffffffffffffffffffffffffffffffffff16815260200190815260200160002060008881526020019081526020016000206005018190555082600160008973ffffffffffffffffffffffffffffffffffffffff1673ffffffffffffffffffffffffffffffffffffffff16815260200190815260200160002060008881526020019081526020016000206006018190555081600160008973ffffffffffffffffffffffffffffffffffffffff1673ffffffffffffffffffffffffffffffffffffffff1681526020019081526020016000206000888152602001908152602001600020600701819055506000600160008973ffffffffffffffffffffffffffffffffffffffff1673ffffffffffffffffffffffffffffffffffffffff16815260200190815260200160002060008881526020019081526020016000206040518061016001604052908160008201548152602001600182015481526020016002820160009054906101000a900473ffffffffffffffffffffffffffffffffffffffff1673ffffffffffffffffffffffffffffffffffffffff1673ffffffffffffffffffffffffffffffffffffffff1681526020016003820160009054906101000a900473ffffffffffffffffffffffffffffffffffffffff1673ffffffffffffffffffffffffffffffffffffffff1673ffffffffffffffffffffffffffffffffffffffff168152602001600482015481526020016005820154815260200160068201548152602001600782015481526020016008820160009054906101000a900460ff1615151515815260200160098201548152602001600a8201548152505090503373ffffffffffffffffffffffffffffffffffffffff16878973ffffffffffffffffffffffffffffffffffffffff167fdcb0429c49a8987bc9ad13a714cc75a1128b2029ea0d735f0327724bb325bc58898560600151878b8b6040516117c1959493929190613dc2565b60405180910390a45050505050505050505050505060016000819055505050505050505050565b6117f06131a3565b600160008473ffffffffffffffffffffffffffffffffffffffff1673ffffffffffffffffffffffffffffffffffffffff16815260200190815260200160002060008381526020019081526020016000206040518061016001604052908160008201548152602001600182015481526020016002820160009054906101000a900473ffffffffffffffffffffffffffffffffffffffff1673ffffffffffffffffffffffffffffffffffffffff1673ffffffffffffffffffffffffffffffffffffffff1681526020016003820160009054906101000a900473ffffffffffffffffffffffffffffffffffffffff1673ffffffffffffffffffffffffffffffffffffffff1673ffffffffffffffffffffffffffffffffffffffff168152602001600482015481526020016005820154815260200160068201548152602001600782015481526020016008820160009054906101000a900460ff1615151515815260200160098201548152602001600a82015481525050905092915050565b6000600260003373ffffffffffffffffffffffffffffffffffffffff1673ffffffffffffffffffffffffffffffffffffffff168152602001908152602001600020549050600081116119f2576040517f08c379a00000000000000000000000000000000000000000000000000000000081526004016119e990613e61565b60405180910390fd5b6000600260003373ffffffffffffffffffffffffffffffffffffffff1673ffffffffffffffffffffffffffffffffffffffff1681526020019081526020016000208190555060003373ffffffffffffffffffffffffffffffffffffffff1682604051611a5d90613eb2565b60006040518083038185875af1925050503d8060008114611a9a576040519150601f19603f3d011682016040523d82523d6000602084013e611a9f565b606091505b5050905080611ae3576040517f08c379a0000000000000000000000000000000000000000000000000000000008152600401611ada90613f13565b60405180910390fd5b5050565b60026000541415611b2d576040517f08c379a0000000000000000000000000000000000000000000000000000000008152600401611b2490613811565b60405180910390fd5b600260008190555081816000600160008473ffffffffffffffffffffffffffffffffffffffff1673ffffffffffffffffffffffffffffffffffffffff16815260200190815260200160002060008381526020019081526020016000206040518061016001604052908160008201548152602001600182015481526020016002820160009054906101000a900473ffffffffffffffffffffffffffffffffffffffff1673ffffffffffffffffffffffffffffffffffffffff1673ffffffffffffffffffffffffffffffffffffffff1681526020016003820160009054906101000a900473ffffffffffffffffffffffffffffffffffffffff1673ffffffffffffffffffffffffffffffffffffffff1673ffffffffffffffffffffffffffffffffffffffff168152602001600482015481526020016005820154815260200160068201548152602001600782015481526020016008820160009054906101000a900460ff1615151515815260200160098201548152602001600a8201548152505090506000816000015111611cf5576040517f08c379a0000000000000000000000000000000000000000000000000000000008152600401611cec9061387d565b60405180910390fd5b84846000600160008473ffffffffffffffffffffffffffffffffffffffff1673ffffffffffffffffffffffffffffffffffffffff16815260200190815260200160002060008381526020019081526020016000206040518061016001604052908160008201548152602001600182015481526020016002820160009054906101000a900473ffffffffffffffffffffffffffffffffffffffff1673ffffffffffffffffffffffffffffffffffffffff1673ffffffffffffffffffffffffffffffffffffffff1681526020016003820160009054906101000a900473ffffffffffffffffffffffffffffffffffffffff1673ffffffffffffffffffffffffffffffffffffffff1673ffffffffffffffffffffffffffffffffffffffff168152602001600482015481526020016005820154815260200160068201548152602001600782015481526020016008820160009054906101000a900460ff1615151515815260200160098201548152602001600a82015481525050905060011515816101000151151514611eba576040517f08c379a0000000000000000000000000000000000000000000000000000000008152600401611eb190613f7f565b60405180910390fd5b87876000600160008473ffffffffffffffffffffffffffffffffffffffff1673ffffffffffffffffffffffffffffffffffffffff16815260200190815260200160002060008381526020019081526020016000206040518061016001604052908160008201548152602001600182015481526020016002820160009054906101000a900473ffffffffffffffffffffffffffffffffffffffff1673ffffffffffffffffffffffffffffffffffffffff1673ffffffffffffffffffffffffffffffffffffffff1681526020016003820160009054906101000a900473ffffffffffffffffffffffffffffffffffffffff1673ffffffffffffffffffffffffffffffffffffffff1673ffffffffffffffffffffffffffffffffffffffff168152602001600482015481526020016005820154815260200160068201548152602001600782015481526020016008820160009054906101000a900460ff1615151515815260200160098201548152602001600a8201548152505090508060a0015162093a8061204691906139fa565b81610120015161205691906139a4565b421115801561206757508061010001515b6120a6576040517f08c379a000000000000000000000000000000000000000000000000000000000815260040161209d90613feb565b60405180910390fd5b60008b905060008b90506000600160008473ffffffffffffffffffffffffffffffffffffffff1673ffffffffffffffffffffffffffffffffffffffff16815260200190815260200160002060008381526020019081526020016000206040518061016001604052908160008201548152602001600182015481526020016002820160009054906101000a900473ffffffffffffffffffffffffffffffffffffffff1673ffffffffffffffffffffffffffffffffffffffff1673ffffffffffffffffffffffffffffffffffffffff1681526020016003820160009054906101000a900473ffffffffffffffffffffffffffffffffffffffff1673ffffffffffffffffffffffffffffffffffffffff1673ffffffffffffffffffffffffffffffffffffffff168152602001600482015481526020016005820154815260200160068201548152602001600782015481526020016008820160009054906101000a900460ff1615151515815260200160098201548152602001600a8201548152505090506000600160008573ffffffffffffffffffffffffffffffffffffffff1673ffffffffffffffffffffffffffffffffffffffff16815260200190815260200160002060008481526020019081526020016000209050600082606001519050826040015173ffffffffffffffffffffffffffffffffffffffff168173ffffffffffffffffffffffffffffffffffffffff1614156122f7576040517f08c379a00000000000000000000000000000000000000000000000000000000081526004016122ee90614057565b60405180910390fd5b60008360e001511161233e576040517f08c379a0000000000000000000000000000000000000000000000000000000008152600401612335906140c3565b60405180910390fd5b600060648460c00151606461235391906139a4565b856000015161236291906139fa565b61236c9190613a83565b905060006064601e8361237f91906139fa565b6123899190613a83565b905060008560a00151828461239e9190613b20565b6123a89190613a83565b905060003490508181146123f1576040517f08c379a00000000000000000000000000000000000000000000000000000000081526004016123e89061412f565b60405180910390fd5b6000612401886101200151613188565b90506000808961014001511180156124235750612422896101400151613188565b5b9050600082806124305750815b801561248357508960e00151600260008c6040015173ffffffffffffffffffffffffffffffffffffffff1673ffffffffffffffffffffffffffffffffffffffff1681526020019081526020016000205411155b905080156125f45760008a6040015173ffffffffffffffffffffffffffffffffffffffff16600260008d6040015173ffffffffffffffffffffffffffffffffffffffff1673ffffffffffffffffffffffffffffffffffffffff168152602001908152602001600020546040516124f890613eb2565b60006040518083038185875af1925050503d8060008114612535576040519150601f19603f3d011682016040523d82523d6000602084013e61253a565b606091505b505090508061257e576040517f08c379a00000000000000000000000000000000000000000000000000000000081526004016125759061419b565b60405180910390fd5b8c73ffffffffffffffffffffffffffffffffffffffff166342842e0e308d6040015160006040518463ffffffff1660e01b81526004016125c093929190614200565b600060405180830381600087803b1580156125da57600080fd5b505af11580156125ee573d6000803e3d6000fd5b50505050505b34600260008c6040015173ffffffffffffffffffffffffffffffffffffffff1673ffffffffffffffffffffffffffffffffffffffff168152602001908152602001600020600082825461264791906139a4565b92505081905550348a60e0015161265e9190613b20565b89600701819055504289600a01819055507ff9dc004aa949cf5f887821d1b07512ff76ccd960b48ec3176d88db8cae044371888d8d6040516126a293929190613b54565b60405180910390a150505050505050505050505050505050505050505060016000819055505050565b818133600083905060008173ffffffffffffffffffffffffffffffffffffffff16636352211e856040518263ffffffff1660e01b815260040161270e9190613448565b60206040518083038186803b15801561272657600080fd5b505afa15801561273a573d6000803e3d6000fd5b505050506040513d601f19601f8201168201806040525081019061275e9190613c51565b90508273ffffffffffffffffffffffffffffffffffffffff168173ffffffffffffffffffffffffffffffffffffffff16146127ce576040517f08c379a00000000000000000000000000000000000000000000000000000000081526004016127c590613cca565b60405180910390fd5b86866000600160008473ffffffffffffffffffffffffffffffffffffffff1673ffffffffffffffffffffffffffffffffffffffff16815260200190815260200160002060008381526020019081526020016000206040518061016001604052908160008201548152602001600182015481526020016002820160009054906101000a900473ffffffffffffffffffffffffffffffffffffffff1673ffffffffffffffffffffffffffffffffffffffff1673ffffffffffffffffffffffffffffffffffffffff1681526020016003820160009054906101000a900473ffffffffffffffffffffffffffffffffffffffff1673ffffffffffffffffffffffffffffffffffffffff1673ffffffffffffffffffffffffffffffffffffffff168152602001600482015481526020016005820154815260200160068201548152602001600782015481526020016008820160009054906101000a900460ff1615151515815260200160098201548152602001600a820154815250509050600081600001511161298e576040517f08c379a00000000000000000000000000000000000000000000000000000000081526004016129859061387d565b60405180910390fd5b600160008b73ffffffffffffffffffffffffffffffffffffffff1673ffffffffffffffffffffffffffffffffffffffff16815260200190815260200160002060008a815260200190815260200160002060008082016000905560018201600090556002820160006101000a81549073ffffffffffffffffffffffffffffffffffffffff02191690556003820160006101000a81549073ffffffffffffffffffffffffffffffffffffffff021916905560048201600090556005820160009055600682016000905560078201600090556008820160006101000a81549060ff02191690556009820160009055600a82016000905550507f6e08c1d889d309942730e4afa7963d0c5294a34a479f2c8cf39a953f287dcdee338b8b604051612ab693929190613b54565b60405180910390a150505050505050505050565b838533600083905060008173ffffffffffffffffffffffffffffffffffffffff16636352211e856040518263ffffffff1660e01b8152600401612b0d9190613448565b60206040518083038186803b158015612b2557600080fd5b505afa158015612b39573d6000803e3d6000fd5b505050506040513d601f19601f82011682018060405250810190612b5d9190613c51565b90508273ffffffffffffffffffffffffffffffffffffffff168173ffffffffffffffffffffffffffffffffffffffff1614612bcd576040517f08c379a0000000000000000000000000000000000000000000000000000000008152600401612bc490613cca565b60405180910390fd5b8989336000600160008473ffffffffffffffffffffffffffffffffffffffff1673ffffffffffffffffffffffffffffffffffffffff16815260200190815260200160002060008581526020019081526020016000206040518061016001604052908160008201548152602001600182015481526020016002820160009054906101000a900473ffffffffffffffffffffffffffffffffffffffff1673ffffffffffffffffffffffffffffffffffffffff1673ffffffffffffffffffffffffffffffffffffffff1681526020016003820160009054906101000a900473ffffffffffffffffffffffffffffffffffffffff1673ffffffffffffffffffffffffffffffffffffffff1673ffffffffffffffffffffffffffffffffffffffff168152602001600482015481526020016005820154815260200160068201548152602001600782015481526020016008820160009054906101000a900460ff1615151515815260200160098201548152602001600a820154815250509050600081600001511115612d8f576040517f08c379a0000000000000000000000000000000000000000000000000000000008152600401612d8690614283565b60405180910390fd5b60008e905060008d905060008f905060008e905060008e905060006064826064612db991906139a4565b86612dc491906139fa565b612dce9190613a83565b9050600081905060008611612e18576040517f08c379a0000000000000000000000000000000000000000000000000000000008152600401612e0f906142ef565b60405180910390fd5b60006064601e84612e2991906139fa565b612e339190613a83565b905060008690503073ffffffffffffffffffffffffffffffffffffffff168173ffffffffffffffffffffffffffffffffffffffff1663081812fc8b6040518263ffffffff1660e01b8152600401612e8a9190613448565b60206040518083038186803b158015612ea257600080fd5b505afa158015612eb6573d6000803e3d6000fd5b505050506040513d601f19601f82011682018060405250810190612eda9190613c51565b73ffffffffffffffffffffffffffffffffffffffff1614612f30576040517f08c379a0000000000000000000000000000000000000000000000000000000008152600401612f279061435b565b60405180910390fd5b6040518061016001604052808981526020018a81526020013373ffffffffffffffffffffffffffffffffffffffff1681526020013373ffffffffffffffffffffffffffffffffffffffff168152602001838152602001878152602001868152602001848152602001600015158152602001600081526020016000815250600160008973ffffffffffffffffffffffffffffffffffffffff1673ffffffffffffffffffffffffffffffffffffffff16815260200190815260200160002060008b8152602001908152602001600020600082015181600001556020820151816001015560408201518160020160006101000a81548173ffffffffffffffffffffffffffffffffffffffff021916908373ffffffffffffffffffffffffffffffffffffffff16021790555060608201518160030160006101000a81548173ffffffffffffffffffffffffffffffffffffffff021916908373ffffffffffffffffffffffffffffffffffffffff1602179055506080820151816004015560a0820151816005015560c0820151816006015560e082015181600701556101008201518160080160006101000a81548160ff021916908315150217905550610120820151816009015561014082015181600a01559050503373ffffffffffffffffffffffffffffffffffffffff16898873ffffffffffffffffffffffffffffffffffffffff167fdcb0429c49a8987bc9ad13a714cc75a1128b2029ea0d735f0327724bb325bc588b33878c8c604051613167959493929190613dc2565b60405180910390a45050505050505050505050505050505050505050505050565b600062093a808261319991906139a4565b4210159050919050565b6040518061016001604052806000815260200160008152602001600073ffffffffffffffffffffffffffffffffffffffff168152602001600073ffffffffffffffffffffffffffffffffffffffff1681526020016000815260200160008152602001600081526020016000815260200160001515815260200160008152602001600081525090565b600080fd5b600080fd5b600073ffffffffffffffffffffffffffffffffffffffff82169050919050565b600061326082613235565b9050919050565b61327081613255565b811461327b57600080fd5b50565b60008135905061328d81613267565b92915050565b6000819050919050565b6132a681613293565b81146132b157600080fd5b50565b6000813590506132c38161329d565b92915050565b600080fd5b600080fd5b600080fd5b60008083601f8401126132ee576132ed6132c9565b5b8235905067ffffffffffffffff81111561330b5761330a6132ce565b5b602083019150836001820283011115613327576133266132d3565b5b9250929050565b60008060008060006080868803121561334a5761334961322b565b5b60006133588882890161327e565b95505060206133698882890161327e565b945050604061337a888289016132b4565b935050606086013567ffffffffffffffff81111561339b5761339a613230565b5b6133a7888289016132d8565b92509250509295509295909350565b60007fffffffff0000000000000000000000000000000000000000000000000000000082169050919050565b6133eb816133b6565b82525050565b600060208201905061340660008301846133e2565b92915050565b6000602082840312156134225761342161322b565b5b60006134308482850161327e565b91505092915050565b61344281613293565b82525050565b600060208201905061345d6000830184613439565b92915050565b6000806040838503121561347a5761347961322b565b5b60006134888582860161327e565b9250506020613499858286016132b4565b9150509250929050565b60008115159050919050565b6134b8816134a3565b82525050565b60006020820190506134d360008301846134af565b92915050565b600080600080600060a086880312156134f5576134f461322b565b5b60006135038882890161327e565b9550506020613514888289016132b4565b9450506040613525888289016132b4565b9350506060613536888289016132b4565b9250506080613547888289016132b4565b9150509295509295909350565b61355d81613293565b82525050565b61356c81613255565b82525050565b61357b816134a3565b82525050565b610160820160008201516135986000850182613554565b5060208201516135ab6020850182613554565b5060408201516135be6040850182613563565b5060608201516135d16060850182613563565b5060808201516135e46080850182613554565b5060a08201516135f760a0850182613554565b5060c082015161360a60c0850182613554565b5060e082015161361d60e0850182613554565b50610100820151613632610100850182613572565b50610120820151613647610120850182613554565b5061014082015161365c610140850182613554565b50505050565b6000610160820190506136786000830184613581565b92915050565b600080600080600060a0868803121561369a5761369961322b565b5b60006136a8888289016132b4565b95505060206136b98882890161327e565b94505060406136ca888289016132b4565b93505060606136db888289016132b4565b92505060806136ec888289016132b4565b9150509295509295909350565b61370281613255565b82525050565b600082825260208201905092915050565b82818337600083830152505050565b6000601f19601f8301169050919050565b60006137458385613708565b9350613752838584613719565b61375b83613728565b840190509392505050565b600060808201905061377b60008301886136f9565b61378860208301876136f9565b6137956040830186613439565b81810360608301526137a8818486613739565b90509695505050505050565b600082825260208201905092915050565b7f5265656e7472616e637947756172643a207265656e7472616e742063616c6c00600082015250565b60006137fb601f836137b4565b9150613806826137c5565b602082019050919050565b6000602082019050818103600083015261382a816137ee565b9050919050565b7f4e6f744c69737465640000000000000000000000000000000000000000000000600082015250565b60006138676009836137b4565b915061387282613831565b602082019050919050565b600060208201905081810360008301526138968161385a565b9050919050565b7f4465706f736974416c7265616479506169640000000000000000000000000000600082015250565b60006138d36012836137b4565b91506138de8261389d565b602082019050919050565b60006020820190508181036000830152613902816138c6565b9050919050565b7f53656c6c6572556e61626c65546f4465706f7369740000000000000000000000600082015250565b600061393f6015836137b4565b915061394a82613909565b602082019050919050565b6000602082019050818103600083015261396e81613932565b9050919050565b7f4e487b7100000000000000000000000000000000000000000000000000000000600052601160045260246000fd5b60006139af82613293565b91506139ba83613293565b9250827fffffffffffffffffffffffffffffffffffffffffffffffffffffffffffffffff038211156139ef576139ee613975565b5b828201905092915050565b6000613a0582613293565b9150613a1083613293565b9250817fffffffffffffffffffffffffffffffffffffffffffffffffffffffffffffffff0483118215151615613a4957613a48613975565b5b828202905092915050565b7f4e487b7100000000000000000000000000000000000000000000000000000000600052601260045260246000fd5b6000613a8e82613293565b9150613a9983613293565b925082613aa957613aa8613a54565b5b828204905092915050565b7f496e636f72726563744465706f73697400000000000000000000000000000000600082015250565b6000613aea6010836137b4565b9150613af582613ab4565b602082019050919050565b60006020820190508181036000830152613b1981613add565b9050919050565b6000613b2b82613293565b9150613b3683613293565b925082821015613b4957613b48613975565b5b828203905092915050565b6000606082019050613b6960008301866136f9565b613b7660208301856136f9565b613b836040830184613439565b949350505050565b7f4861734e6f74506169644c6f616e000000000000000000000000000000000000600082015250565b6000613bc1600e836137b4565b9150613bcc82613b8b565b602082019050919050565b60006020820190508181036000830152613bf081613bb4565b9050919050565b6000608082019050613c0c60008301876136f9565b613c1960208301866136f9565b613c266040830185613439565b613c336060830184613439565b95945050505050565b600081519050613c4b81613267565b92915050565b600060208284031215613c6757613c6661322b565b5b6000613c7584828501613c3c565b91505092915050565b7f4e6f744f776e6572000000000000000000000000000000000000000000000000600082015250565b6000613cb46008836137b4565b9150613cbf82613c7e565b602082019050919050565b60006020820190508181036000830152613ce381613ca7565b9050919050565b7f50726963654d757374426541626f76655a65726f000000000000000000000000600082015250565b6000613d206014836137b4565b9150613d2b82613cea565b602082019050919050565b60006020820190508181036000830152613d4f81613d13565b9050919050565b7f556e61626c65546f5570646174655769746850726f6365656473000000000000600082015250565b6000613d8c601a836137b4565b9150613d9782613d56565b602082019050919050565b60006020820190508181036000830152613dbb81613d7f565b9050919050565b600060a082019050613dd76000830188613439565b613de460208301876136f9565b613df16040830186613439565b613dfe6060830185613439565b613e0b6080830184613439565b9695505050505050565b7f4e6f50726f636565647300000000000000000000000000000000000000000000600082015250565b6000613e4b600a836137b4565b9150613e5682613e15565b602082019050919050565b60006020820190508181036000830152613e7a81613e3e565b9050919050565b600081905092915050565b50565b6000613e9c600083613e81565b9150613ea782613e8c565b600082019050919050565b6000613ebd82613e8f565b9150819050919050565b7f57697468647261774661696c6564000000000000000000000000000000000000600082015250565b6000613efd600e836137b4565b9150613f0882613ec7565b602082019050919050565b60006020820190508181036000830152613f2c81613ef0565b9050919050565b7f4d7573745061794465706f736974000000000000000000000000000000000000600082015250565b6000613f69600e836137b4565b9150613f7482613f33565b602082019050919050565b60006020820190508181036000830152613f9881613f5c565b9050919050565b7f4c6f616e4475726174696f6e4578706972656400000000000000000000000000600082015250565b6000613fd56013836137b4565b9150613fe082613f9f565b602082019050919050565b6000602082019050818103600083015261400481613fc8565b9050919050565b7f53656c6c6572556e61626c65546f506179496e7374616c6c6d656e7400000000600082015250565b6000614041601c836137b4565b915061404c8261400b565b602082019050919050565b6000602082019050818103600083015261407081614034565b9050919050565b7f496e74616c6d656e7473416c7265616479506169640000000000000000000000600082015250565b60006140ad6015836137b4565b91506140b882614077565b602082019050919050565b600060208201905081810360008301526140dc816140a0565b9050919050565b7f496e636f7272656374496e7374616c6d656e74416d6f756e7400000000000000600082015250565b60006141196019836137b4565b9150614124826140e3565b602082019050919050565b600060208201905081810360008301526141488161410c565b9050919050565b7f556e61626c65546f5472616e7366657250726f6365656473546f53656c6c6572600082015250565b60006141856020836137b4565b91506141908261414f565b602082019050919050565b600060208201905081810360008301526141b481614178565b9050919050565b6000819050919050565b6000819050919050565b60006141ea6141e56141e0846141bb565b6141c5565b613293565b9050919050565b6141fa816141cf565b82525050565b600060608201905061421560008301866136f9565b61422260208301856136f9565b61422f60408301846141f1565b949350505050565b7f4974656d416c72656164794c6973746564000000000000000000000000000000600082015250565b600061426d6011836137b4565b915061427882614237565b602082019050919050565b6000602082019050818103600083015261429c81614260565b9050919050565b7f50726963654e6f74477265617465725468616e5a65726f000000000000000000600082015250565b60006142d96017836137b4565b91506142e4826142a3565b602082019050919050565b60006020820190508181036000830152614308816142cc565b9050919050565b7f4d61726b6574706c6163654e6f74417070726f76656400000000000000000000600082015250565b60006143456016836137b4565b91506143508261430f565b602082019050919050565b6000602082019050818103600083015261437481614338565b905091905056fea2646970667358221220c25a41183500cb3fe51a556b9c1c91eb3113854cb9a54dac0d69280a0b4a71de64736f6c63430008090033",
    "linkReferences": {},
    "deployedLinkReferences": {}
}