{
    "_format": "hh-sol-artifact-1",
    "contractName": "TestNft",
    "sourceName": "contracts/TestNft.sol",
    "abi": [
        {
            "inputs": [],
            "stateMutability": "nonpayable",
            "type": "constructor"
        },
        {
            "anonymous": false,
            "inputs": [
                {
                    "indexed": true,
                    "internalType": "address",
                    "name": "owner",
                    "type": "address"
                },
                {
                    "indexed": true,
                    "internalType": "address",
                    "name": "approved",
                    "type": "address"
                },
                {
                    "indexed": true,
                    "internalType": "uint256",
                    "name": "tokenId",
                    "type": "uint256"
                }
            ],
            "name": "Approval",
            "type": "event"
        },
        {
            "anonymous": false,
            "inputs": [
                {
                    "indexed": true,
                    "internalType": "address",
                    "name": "owner",
                    "type": "address"
                },
                {
                    "indexed": true,
                    "internalType": "address",
                    "name": "operator",
                    "type": "address"
                },
                {
                    "indexed": false,
                    "internalType": "bool",
                    "name": "approved",
                    "type": "bool"
                }
            ],
            "name": "ApprovalForAll",
            "type": "event"
        },
        {
            "anonymous": false,
            "inputs": [
                {
                    "indexed": true,
                    "internalType": "uint256",
                    "name": "tokenId",
                    "type": "uint256"
                }
            ],
            "name": "NftMinted",
            "type": "event"
        },
        {
            "anonymous": false,
            "inputs": [
                {
                    "indexed": true,
                    "internalType": "address",
                    "name": "from",
                    "type": "address"
                },
                {
                    "indexed": true,
                    "internalType": "address",
                    "name": "to",
                    "type": "address"
                },
                {
                    "indexed": true,
                    "internalType": "uint256",
                    "name": "tokenId",
                    "type": "uint256"
                }
            ],
            "name": "Transfer",
            "type": "event"
        },
        {
            "inputs": [],
            "name": "TOKEN_URI",
            "outputs": [
                {
                    "internalType": "string",
                    "name": "",
                    "type": "string"
                }
            ],
            "stateMutability": "view",
            "type": "function"
        },
        {
            "inputs": [
                {
                    "internalType": "address",
                    "name": "to",
                    "type": "address"
                },
                {
                    "internalType": "uint256",
                    "name": "tokenId",
                    "type": "uint256"
                }
            ],
            "name": "approve",
            "outputs": [],
            "stateMutability": "nonpayable",
            "type": "function"
        },
        {
            "inputs": [
                {
                    "internalType": "address",
                    "name": "owner",
                    "type": "address"
                }
            ],
            "name": "balanceOf",
            "outputs": [
                {
                    "internalType": "uint256",
                    "name": "",
                    "type": "uint256"
                }
            ],
            "stateMutability": "view",
            "type": "function"
        },
        {
            "inputs": [
                {
                    "internalType": "uint256",
                    "name": "tokenId",
                    "type": "uint256"
                }
            ],
            "name": "getApproved",
            "outputs": [
                {
                    "internalType": "address",
                    "name": "",
                    "type": "address"
                }
            ],
            "stateMutability": "view",
            "type": "function"
        },
        {
            "inputs": [],
            "name": "getTokenCounter",
            "outputs": [
                {
                    "internalType": "uint256",
                    "name": "",
                    "type": "uint256"
                }
            ],
            "stateMutability": "view",
            "type": "function"
        },
        {
            "inputs": [
                {
                    "internalType": "address",
                    "name": "owner",
                    "type": "address"
                },
                {
                    "internalType": "address",
                    "name": "operator",
                    "type": "address"
                }
            ],
            "name": "isApprovedForAll",
            "outputs": [
                {
                    "internalType": "bool",
                    "name": "",
                    "type": "bool"
                }
            ],
            "stateMutability": "view",
            "type": "function"
        },
        {
            "inputs": [
                {
                    "internalType": "address",
                    "name": "to",
                    "type": "address"
                }
            ],
            "name": "mintNft",
            "outputs": [],
            "stateMutability": "nonpayable",
            "type": "function"
        },
        {
            "inputs": [],
            "name": "name",
            "outputs": [
                {
                    "internalType": "string",
                    "name": "",
                    "type": "string"
                }
            ],
            "stateMutability": "view",
            "type": "function"
        },
        {
            "inputs": [
                {
                    "internalType": "uint256",
                    "name": "tokenId",
                    "type": "uint256"
                }
            ],
            "name": "ownerOf",
            "outputs": [
                {
                    "internalType": "address",
                    "name": "",
                    "type": "address"
                }
            ],
            "stateMutability": "view",
            "type": "function"
        },
        {
            "inputs": [
                {
                    "internalType": "address",
                    "name": "from",
                    "type": "address"
                },
                {
                    "internalType": "address",
                    "name": "to",
                    "type": "address"
                },
                {
                    "internalType": "uint256",
                    "name": "tokenId",
                    "type": "uint256"
                }
            ],
            "name": "safeTransferFrom",
            "outputs": [],
            "stateMutability": "nonpayable",
            "type": "function"
        },
        {
            "inputs": [
                {
                    "internalType": "address",
                    "name": "from",
                    "type": "address"
                },
                {
                    "internalType": "address",
                    "name": "to",
                    "type": "address"
                },
                {
                    "internalType": "uint256",
                    "name": "tokenId",
                    "type": "uint256"
                },
                {
                    "internalType": "bytes",
                    "name": "data",
                    "type": "bytes"
                }
            ],
            "name": "safeTransferFrom",
            "outputs": [],
            "stateMutability": "nonpayable",
            "type": "function"
        },
        {
            "inputs": [
                {
                    "internalType": "address",
                    "name": "operator",
                    "type": "address"
                },
                {
                    "internalType": "bool",
                    "name": "approved",
                    "type": "bool"
                }
            ],
            "name": "setApprovalForAll",
            "outputs": [],
            "stateMutability": "nonpayable",
            "type": "function"
        },
        {
            "inputs": [
                {
                    "internalType": "bytes4",
                    "name": "interfaceId",
                    "type": "bytes4"
                }
            ],
            "name": "supportsInterface",
            "outputs": [
                {
                    "internalType": "bool",
                    "name": "",
                    "type": "bool"
                }
            ],
            "stateMutability": "view",
            "type": "function"
        },
        {
            "inputs": [],
            "name": "symbol",
            "outputs": [
                {
                    "internalType": "string",
                    "name": "",
                    "type": "string"
                }
            ],
            "stateMutability": "view",
            "type": "function"
        },
        {
            "inputs": [
                {
                    "internalType": "uint256",
                    "name": "tokenId",
                    "type": "uint256"
                }
            ],
            "name": "tokenURI",
            "outputs": [
                {
                    "internalType": "string",
                    "name": "",
                    "type": "string"
                }
            ],
            "stateMutability": "view",
            "type": "function"
        },
        {
            "inputs": [
                {
                    "internalType": "address",
                    "name": "from",
                    "type": "address"
                },
                {
                    "internalType": "address",
                    "name": "to",
                    "type": "address"
                },
                {
                    "internalType": "uint256",
                    "name": "tokenId",
                    "type": "uint256"
                }
            ],
            "name": "transferFrom",
            "outputs": [],
            "stateMutability": "nonpayable",
            "type": "function"
        }
    ],
    "bytecode": "0x60806040523480156200001157600080fd5b506040518060400160405280600481526020017f54657374000000000000000000000000000000000000000000000000000000008152506040518060400160405280600481526020017f5445535400000000000000000000000000000000000000000000000000000000815250816000908051906020019062000096929190620000b8565b508060019080519060200190620000af929190620000b8565b505050620001cd565b828054620000c69062000197565b90600052602060002090601f016020900481019282620000ea576000855562000136565b82601f106200010557805160ff191683800117855562000136565b8280016001018555821562000136579182015b828111156200013557825182559160200191906001019062000118565b5b50905062000145919062000149565b5090565b5b80821115620001645760008160009055506001016200014a565b5090565b7f4e487b7100000000000000000000000000000000000000000000000000000000600052602260045260246000fd5b60006002820490506001821680620001b057607f821691505b60208210811415620001c757620001c662000168565b5b50919050565b6123db80620001dd6000396000f3fe608060405234801561001057600080fd5b50600436106101005760003560e01c806370a0823111610097578063b88d4fde11610066578063b88d4fde146102ad578063c87b56dd146102c9578063e985e9c5146102f9578063e9c2e14b1461032957610100565b806370a082311461022557806378ce90351461025557806395d89b4114610273578063a22cb4651461029157610100565b806323b872dd116100d357806323b872dd1461019f57806342842e0e146101bb5780636352211e146101d75780636e02007d1461020757610100565b806301ffc9a71461010557806306fdde0314610135578063081812fc14610153578063095ea7b314610183575b600080fd5b61011f600480360381019061011a9190611611565b610345565b60405161012c9190611659565b60405180910390f35b61013d610427565b60405161014a919061170d565b60405180910390f35b61016d60048036038101906101689190611765565b6104b9565b60405161017a91906117d3565b60405180910390f35b61019d6004803603810190610198919061181a565b6104ff565b005b6101b960048036038101906101b4919061185a565b610617565b005b6101d560048036038101906101d0919061185a565b610677565b005b6101f160048036038101906101ec9190611765565b610697565b6040516101fe91906117d3565b60405180910390f35b61020f610749565b60405161021c91906118bc565b60405180910390f35b61023f600480360381019061023a91906118d7565b61075a565b60405161024c91906118bc565b60405180910390f35b61025d610812565b60405161026a919061170d565b60405180910390f35b61027b61084b565b604051610288919061170d565b60405180910390f35b6102ab60048036038101906102a69190611930565b6108dd565b005b6102c760048036038101906102c29190611aa5565b6108f3565b005b6102e360048036038101906102de9190611765565b610955565b6040516102f0919061170d565b60405180910390f35b610313600480360381019061030e9190611b28565b6109dc565b6040516103209190611659565b60405180910390f35b610343600480360381019061033e91906118d7565b610a70565b005b60007f80ac58cd000000000000000000000000000000000000000000000000000000007bffffffffffffffffffffffffffffffffffffffffffffffffffffffff1916827bffffffffffffffffffffffffffffffffffffffffffffffffffffffff1916148061041057507f5b5e139f000000000000000000000000000000000000000000000000000000007bffffffffffffffffffffffffffffffffffffffffffffffffffffffff1916827bffffffffffffffffffffffffffffffffffffffffffffffffffffffff1916145b80610420575061041f82610ac3565b5b9050919050565b60606000805461043690611b97565b80601f016020809104026020016040519081016040528092919081815260200182805461046290611b97565b80156104af5780601f10610484576101008083540402835291602001916104af565b820191906000526020600020905b81548152906001019060200180831161049257829003601f168201915b5050505050905090565b60006104c482610b2d565b6004600083815260200190815260200160002060009054906101000a900473ffffffffffffffffffffffffffffffffffffffff169050919050565b600061050a82610697565b90508073ffffffffffffffffffffffffffffffffffffffff168373ffffffffffffffffffffffffffffffffffffffff16141561057b576040517f08c379a000000000000000000000000000000000000000000000000000000000815260040161057290611c3b565b60405180910390fd5b8073ffffffffffffffffffffffffffffffffffffffff1661059a610b78565b73ffffffffffffffffffffffffffffffffffffffff1614806105c957506105c8816105c3610b78565b6109dc565b5b610608576040517f08c379a00000000000000000000000000000000000000000000000000000000081526004016105ff90611ccd565b60405180910390fd5b6106128383610b80565b505050565b610628610622610b78565b82610c39565b610667576040517f08c379a000000000000000000000000000000000000000000000000000000000815260040161065e90611d5f565b60405180910390fd5b610672838383610cce565b505050565b610692838383604051806020016040528060008152506108f3565b505050565b6000806002600084815260200190815260200160002060009054906101000a900473ffffffffffffffffffffffffffffffffffffffff169050600073ffffffffffffffffffffffffffffffffffffffff168173ffffffffffffffffffffffffffffffffffffffff161415610740576040517f08c379a000000000000000000000000000000000000000000000000000000000815260040161073790611dcb565b60405180910390fd5b80915050919050565b60006107556006610f35565b905090565b60008073ffffffffffffffffffffffffffffffffffffffff168273ffffffffffffffffffffffffffffffffffffffff1614156107cb576040517f08c379a00000000000000000000000000000000000000000000000000000000081526004016107c290611e5d565b60405180910390fd5b600360008373ffffffffffffffffffffffffffffffffffffffff1673ffffffffffffffffffffffffffffffffffffffff168152602001908152602001600020549050919050565b6040518060400160405280600c81526020017f74657374546f6b656e557269000000000000000000000000000000000000000081525081565b60606001805461085a90611b97565b80601f016020809104026020016040519081016040528092919081815260200182805461088690611b97565b80156108d35780601f106108a8576101008083540402835291602001916108d3565b820191906000526020600020905b8154815290600101906020018083116108b657829003601f168201915b5050505050905090565b6108ef6108e8610b78565b8383610f43565b5050565b6109046108fe610b78565b83610c39565b610943576040517f08c379a000000000000000000000000000000000000000000000000000000000815260040161093a90611d5f565b60405180910390fd5b61094f848484846110b0565b50505050565b60606109608261110c565b61099f576040517f08c379a000000000000000000000000000000000000000000000000000000000815260040161099690611eef565b60405180910390fd5b6040518060400160405280600c81526020017f74657374546f6b656e55726900000000000000000000000000000000000000008152509050919050565b6000600560008473ffffffffffffffffffffffffffffffffffffffff1673ffffffffffffffffffffffffffffffffffffffff16815260200190815260200160002060008373ffffffffffffffffffffffffffffffffffffffff1673ffffffffffffffffffffffffffffffffffffffff16815260200190815260200160002060009054906101000a900460ff16905092915050565b6000610a7c6006610f35565b9050610a888282611178565b807f7f8949b6eca2b14d0feb1af0844a112998e467a4f88b8683301f3a6e409f32ae60405160405180910390a2610abf6006611196565b5050565b60007f01ffc9a7000000000000000000000000000000000000000000000000000000007bffffffffffffffffffffffffffffffffffffffffffffffffffffffff1916827bffffffffffffffffffffffffffffffffffffffffffffffffffffffff1916149050919050565b610b368161110c565b610b75576040517f08c379a0000000000000000000000000000000000000000000000000000000008152600401610b6c90611dcb565b60405180910390fd5b50565b600033905090565b816004600083815260200190815260200160002060006101000a81548173ffffffffffffffffffffffffffffffffffffffff021916908373ffffffffffffffffffffffffffffffffffffffff160217905550808273ffffffffffffffffffffffffffffffffffffffff16610bf383610697565b73ffffffffffffffffffffffffffffffffffffffff167f8c5be1e5ebec7d5bd14f71427d1e84f3dd0314c0f7b2291e5b200ac8c7c3b92560405160405180910390a45050565b600080610c4583610697565b90508073ffffffffffffffffffffffffffffffffffffffff168473ffffffffffffffffffffffffffffffffffffffff161480610c875750610c8681856109dc565b5b80610cc557508373ffffffffffffffffffffffffffffffffffffffff16610cad846104b9565b73ffffffffffffffffffffffffffffffffffffffff16145b91505092915050565b8273ffffffffffffffffffffffffffffffffffffffff16610cee82610697565b73ffffffffffffffffffffffffffffffffffffffff1614610d44576040517f08c379a0000000000000000000000000000000000000000000000000000000008152600401610d3b90611f81565b60405180910390fd5b600073ffffffffffffffffffffffffffffffffffffffff168273ffffffffffffffffffffffffffffffffffffffff161415610db4576040517f08c379a0000000000000000000000000000000000000000000000000000000008152600401610dab90612013565b60405180910390fd5b610dbf8383836111ac565b610dca600082610b80565b6001600360008573ffffffffffffffffffffffffffffffffffffffff1673ffffffffffffffffffffffffffffffffffffffff1681526020019081526020016000206000828254610e1a9190612062565b925050819055506001600360008473ffffffffffffffffffffffffffffffffffffffff1673ffffffffffffffffffffffffffffffffffffffff1681526020019081526020016000206000828254610e719190612096565b92505081905550816002600083815260200190815260200160002060006101000a81548173ffffffffffffffffffffffffffffffffffffffff021916908373ffffffffffffffffffffffffffffffffffffffff160217905550808273ffffffffffffffffffffffffffffffffffffffff168473ffffffffffffffffffffffffffffffffffffffff167fddf252ad1be2c89b69c2b068fc378daa952ba7f163c4a11628f55a4df523b3ef60405160405180910390a4610f308383836111b1565b505050565b600081600001549050919050565b8173ffffffffffffffffffffffffffffffffffffffff168373ffffffffffffffffffffffffffffffffffffffff161415610fb2576040517f08c379a0000000000000000000000000000000000000000000000000000000008152600401610fa990612138565b60405180910390fd5b80600560008573ffffffffffffffffffffffffffffffffffffffff1673ffffffffffffffffffffffffffffffffffffffff16815260200190815260200160002060008473ffffffffffffffffffffffffffffffffffffffff1673ffffffffffffffffffffffffffffffffffffffff16815260200190815260200160002060006101000a81548160ff0219169083151502179055508173ffffffffffffffffffffffffffffffffffffffff168373ffffffffffffffffffffffffffffffffffffffff167f17307eab39ab6107e8899845ad3d59bd9653f200f220920489ca2b5937696c31836040516110a39190611659565b60405180910390a3505050565b6110bb848484610cce565b6110c7848484846111b6565b611106576040517f08c379a00000000000000000000000000000000000000000000000000000000081526004016110fd906121ca565b60405180910390fd5b50505050565b60008073ffffffffffffffffffffffffffffffffffffffff166002600084815260200190815260200160002060009054906101000a900473ffffffffffffffffffffffffffffffffffffffff1673ffffffffffffffffffffffffffffffffffffffff1614159050919050565b61119282826040518060200160405280600081525061134d565b5050565b6001816000016000828254019250508190555050565b505050565b505050565b60006111d78473ffffffffffffffffffffffffffffffffffffffff166113a8565b15611340578373ffffffffffffffffffffffffffffffffffffffff1663150b7a02611200610b78565b8786866040518563ffffffff1660e01b8152600401611222949392919061223f565b602060405180830381600087803b15801561123c57600080fd5b505af192505050801561126d57506040513d601f19601f8201168201806040525081019061126a91906122a0565b60015b6112f0573d806000811461129d576040519150601f19603f3d011682016040523d82523d6000602084013e6112a2565b606091505b506000815114156112e8576040517f08c379a00000000000000000000000000000000000000000000000000000000081526004016112df906121ca565b60405180910390fd5b805181602001fd5b63150b7a0260e01b7bffffffffffffffffffffffffffffffffffffffffffffffffffffffff1916817bffffffffffffffffffffffffffffffffffffffffffffffffffffffff191614915050611345565b600190505b949350505050565b61135783836113cb565b61136460008484846111b6565b6113a3576040517f08c379a000000000000000000000000000000000000000000000000000000000815260040161139a906121ca565b60405180910390fd5b505050565b6000808273ffffffffffffffffffffffffffffffffffffffff163b119050919050565b600073ffffffffffffffffffffffffffffffffffffffff168273ffffffffffffffffffffffffffffffffffffffff16141561143b576040517f08c379a000000000000000000000000000000000000000000000000000000000815260040161143290612319565b60405180910390fd5b6114448161110c565b15611484576040517f08c379a000000000000000000000000000000000000000000000000000000000815260040161147b90612385565b60405180910390fd5b611490600083836111ac565b6001600360008473ffffffffffffffffffffffffffffffffffffffff1673ffffffffffffffffffffffffffffffffffffffff16815260200190815260200160002060008282546114e09190612096565b92505081905550816002600083815260200190815260200160002060006101000a81548173ffffffffffffffffffffffffffffffffffffffff021916908373ffffffffffffffffffffffffffffffffffffffff160217905550808273ffffffffffffffffffffffffffffffffffffffff16600073ffffffffffffffffffffffffffffffffffffffff167fddf252ad1be2c89b69c2b068fc378daa952ba7f163c4a11628f55a4df523b3ef60405160405180910390a46115a1600083836111b1565b5050565b6000604051905090565b600080fd5b600080fd5b60007fffffffff0000000000000000000000000000000000000000000000000000000082169050919050565b6115ee816115b9565b81146115f957600080fd5b50565b60008135905061160b816115e5565b92915050565b600060208284031215611627576116266115af565b5b6000611635848285016115fc565b91505092915050565b60008115159050919050565b6116538161163e565b82525050565b600060208201905061166e600083018461164a565b92915050565b600081519050919050565b600082825260208201905092915050565b60005b838110156116ae578082015181840152602081019050611693565b838111156116bd576000848401525b50505050565b6000601f19601f8301169050919050565b60006116df82611674565b6116e9818561167f565b93506116f9818560208601611690565b611702816116c3565b840191505092915050565b6000602082019050818103600083015261172781846116d4565b905092915050565b6000819050919050565b6117428161172f565b811461174d57600080fd5b50565b60008135905061175f81611739565b92915050565b60006020828403121561177b5761177a6115af565b5b600061178984828501611750565b91505092915050565b600073ffffffffffffffffffffffffffffffffffffffff82169050919050565b60006117bd82611792565b9050919050565b6117cd816117b2565b82525050565b60006020820190506117e860008301846117c4565b92915050565b6117f7816117b2565b811461180257600080fd5b50565b600081359050611814816117ee565b92915050565b60008060408385031215611831576118306115af565b5b600061183f85828601611805565b925050602061185085828601611750565b9150509250929050565b600080600060608486031215611873576118726115af565b5b600061188186828701611805565b935050602061189286828701611805565b92505060406118a386828701611750565b9150509250925092565b6118b68161172f565b82525050565b60006020820190506118d160008301846118ad565b92915050565b6000602082840312156118ed576118ec6115af565b5b60006118fb84828501611805565b91505092915050565b61190d8161163e565b811461191857600080fd5b50565b60008135905061192a81611904565b92915050565b60008060408385031215611947576119466115af565b5b600061195585828601611805565b92505060206119668582860161191b565b9150509250929050565b600080fd5b600080fd5b7f4e487b7100000000000000000000000000000000000000000000000000000000600052604160045260246000fd5b6119b2826116c3565b810181811067ffffffffffffffff821117156119d1576119d061197a565b5b80604052505050565b60006119e46115a5565b90506119f082826119a9565b919050565b600067ffffffffffffffff821115611a1057611a0f61197a565b5b611a19826116c3565b9050602081019050919050565b82818337600083830152505050565b6000611a48611a43846119f5565b6119da565b905082815260208101848484011115611a6457611a63611975565b5b611a6f848285611a26565b509392505050565b600082601f830112611a8c57611a8b611970565b5b8135611a9c848260208601611a35565b91505092915050565b60008060008060808587031215611abf57611abe6115af565b5b6000611acd87828801611805565b9450506020611ade87828801611805565b9350506040611aef87828801611750565b925050606085013567ffffffffffffffff811115611b1057611b0f6115b4565b5b611b1c87828801611a77565b91505092959194509250565b60008060408385031215611b3f57611b3e6115af565b5b6000611b4d85828601611805565b9250506020611b5e85828601611805565b9150509250929050565b7f4e487b7100000000000000000000000000000000000000000000000000000000600052602260045260246000fd5b60006002820490506001821680611baf57607f821691505b60208210811415611bc357611bc2611b68565b5b50919050565b7f4552433732313a20617070726f76616c20746f2063757272656e74206f776e6560008201527f7200000000000000000000000000000000000000000000000000000000000000602082015250565b6000611c2560218361167f565b9150611c3082611bc9565b604082019050919050565b60006020820190508181036000830152611c5481611c18565b9050919050565b7f4552433732313a20617070726f76652063616c6c6572206973206e6f7420746f60008201527f6b656e206f776e6572206e6f7220617070726f76656420666f7220616c6c0000602082015250565b6000611cb7603e8361167f565b9150611cc282611c5b565b604082019050919050565b60006020820190508181036000830152611ce681611caa565b9050919050565b7f4552433732313a2063616c6c6572206973206e6f7420746f6b656e206f776e6560008201527f72206e6f7220617070726f766564000000000000000000000000000000000000602082015250565b6000611d49602e8361167f565b9150611d5482611ced565b604082019050919050565b60006020820190508181036000830152611d7881611d3c565b9050919050565b7f4552433732313a20696e76616c696420746f6b656e2049440000000000000000600082015250565b6000611db560188361167f565b9150611dc082611d7f565b602082019050919050565b60006020820190508181036000830152611de481611da8565b9050919050565b7f4552433732313a2061646472657373207a65726f206973206e6f74206120766160008201527f6c6964206f776e65720000000000000000000000000000000000000000000000602082015250565b6000611e4760298361167f565b9150611e5282611deb565b604082019050919050565b60006020820190508181036000830152611e7681611e3a565b9050919050565b7f546573744e66743a3a746f6b656e5552493a20746f6b656e55524920646f657360008201527f206e6f7420657869737400000000000000000000000000000000000000000000602082015250565b6000611ed9602a8361167f565b9150611ee482611e7d565b604082019050919050565b60006020820190508181036000830152611f0881611ecc565b9050919050565b7f4552433732313a207472616e736665722066726f6d20696e636f72726563742060008201527f6f776e6572000000000000000000000000000000000000000000000000000000602082015250565b6000611f6b60258361167f565b9150611f7682611f0f565b604082019050919050565b60006020820190508181036000830152611f9a81611f5e565b9050919050565b7f4552433732313a207472616e7366657220746f20746865207a65726f2061646460008201527f7265737300000000000000000000000000000000000000000000000000000000602082015250565b6000611ffd60248361167f565b915061200882611fa1565b604082019050919050565b6000602082019050818103600083015261202c81611ff0565b9050919050565b7f4e487b7100000000000000000000000000000000000000000000000000000000600052601160045260246000fd5b600061206d8261172f565b91506120788361172f565b92508282101561208b5761208a612033565b5b828203905092915050565b60006120a18261172f565b91506120ac8361172f565b9250827fffffffffffffffffffffffffffffffffffffffffffffffffffffffffffffffff038211156120e1576120e0612033565b5b828201905092915050565b7f4552433732313a20617070726f766520746f2063616c6c657200000000000000600082015250565b600061212260198361167f565b915061212d826120ec565b602082019050919050565b6000602082019050818103600083015261215181612115565b9050919050565b7f4552433732313a207472616e7366657220746f206e6f6e20455243373231526560008201527f63656976657220696d706c656d656e7465720000000000000000000000000000602082015250565b60006121b460328361167f565b91506121bf82612158565b604082019050919050565b600060208201905081810360008301526121e3816121a7565b9050919050565b600081519050919050565b600082825260208201905092915050565b6000612211826121ea565b61221b81856121f5565b935061222b818560208601611690565b612234816116c3565b840191505092915050565b600060808201905061225460008301876117c4565b61226160208301866117c4565b61226e60408301856118ad565b81810360608301526122808184612206565b905095945050505050565b60008151905061229a816115e5565b92915050565b6000602082840312156122b6576122b56115af565b5b60006122c48482850161228b565b91505092915050565b7f4552433732313a206d696e7420746f20746865207a65726f2061646472657373600082015250565b600061230360208361167f565b915061230e826122cd565b602082019050919050565b60006020820190508181036000830152612332816122f6565b9050919050565b7f4552433732313a20746f6b656e20616c7265616479206d696e74656400000000600082015250565b600061236f601c8361167f565b915061237a82612339565b602082019050919050565b6000602082019050818103600083015261239e81612362565b905091905056fea26469706673582212203de02e6ec52c023d03e8b6fa0b5664e806fbccac77d4dc7d1ebd9a2d60f43ab464736f6c63430008090033",
    "linkReferences": {},
    "deployedLinkReferences": {}
}